:100000000C9474000C9493000C9493000C94930043
:100010000C9493000C9493000C9493000C94930014
:100020000C9493000C9493000C9493000C94930004
:100030000C9493000C9493000C9493000C949300F4
:100040000C9493000C9493000C943B010C9493003B
:100050000C9493000C9493000C9493000C949300D4
:100060000C9493000C9493000C9493000C949300C4
:100070000C9493000C9493000C9493000C949300B4
:100080000C9493000C9493000C9493000C949300A4
:100090000C9493000C9493000C9493000C94930094
:1000A0000C9493000C9493000C9493000C94930084
:1000B0000C9493000C9493000C9493000C94930074
:1000C0000C9493000C9493000C9493000C94930064
:1000D0000C9493000C9493000C9493000C94930054
:1000E0000C9493000C94930011241FBECFEFCDBF4E
:1000F000DFE7DEBF10E4A0E0B0E4E8E2F3E000E018
:100100000BBF02C007900D92A430B107D9F720E4CD
:10011000A4E0B0E401C01D92AB30B207E1F70E9449
:1001200099000C9492010C9400000E940D01089516
:10013000FFCF0E949500809100400E94980010928D
:10014000890080E0089544E268ED88E690E00E942E
:10015000280180E0089580E0089580E008C0E82F3D
:10016000F0E0E05FFB4F9081986090838F5F883074
:10017000B0F380E008C0E82FF0E0E05DFB4F908135
:10018000986090838F5F8830B0F380E008C0E82FDC
:10019000F0E0E05BFB4F9081986090838F5F883048
:1001A000B0F380E008C0E82FF0E0E059FB4F908109
:1001B000986090838F5F8830B0F380E008C0E82FAC
:1001C000F0E0E057FB4F9081986090838F5F88301C
:1001D000B0F380E008C0E82FF0E0E055FB4F9081DD
:1001E000986090838F5F8830B0F3089580B18F7DE1
:1001F00080B9E5E1F4E08081877F808381B18F7EE3
:1002000081B980B1806180B981B18F7B81B980B1C2
:10021000806480B90E942F0108950E94AD0080B1D2
:100220008B7F80B9E2E1F4E08081877F808381B1B8
:10023000877F81B980B1886080B90E94A3000E9445
:100240002D010E94AB000E94F6000E949F000895BD
:100250001BBEFC0164BF4083089580E00895E0E484
:10026000F9E083E3808381E08283E4E0F0E41082BC
:100270001582168208951F920F920FB60F921124C5
:100280000BB60F922F933F934F935F936F937F9390
:100290008F939F93AF93BF93EF93FF93E0E4F9E0C5
:1002A000948180E8838380910840823029F0E09136
:1002B0000540F09106409083E4E0F0E4A181B28132
:1002C0009D012F5F3F4F21833283813019F01196BA
:1002D0009C9101C090E0E4E0F0E48381815083834D
:1002E000882319F0909344090AC0E4E0F0E483E025
:1002F00080830580F681E02D309709F00995FF9104
:10030000EF91BF91AF919F918F917F916F915F918D
:100310004F913F912F910F900BBE0F900FBE0F90FA
:080320001F901895F894FFCF1F
:040328005500FF007D
:00000001FF
