:100000000C9474000C9493000C9493000C94930043
:100010000C9493000C9493000C9493000C94930014
:100020000C9493000C9493000C9493000C94930004
:100030000C9493000C9493000C9493000C949300F4
:100040000C9493000C9493000C9413030C94930061
:100050000C9493000C9493000C9493000C949300D4
:100060000C9493000C9493000C9493000C949300C4
:100070000C9493000C9493000C9493000C949300B4
:100080000C9493000C9493000C9493000C949300A4
:100090000C9493000C9493000C9493000C94930094
:1000A0000C9493000C9493000C9493000C94930084
:1000B0000C9493000C9493000C9493000C94930074
:1000C0000C9493000C9493000C9493000C94930064
:1000D0000C9493000C9493000C9493000C94930054
:1000E0000C9493000C94930011241FBECFEFCDBF4E
:1000F000DFE7DEBF10E4A0E0B0E4E2EAF8E000E011
:100100000BBF02C007900D92A430B107D9F722E4CB
:10011000A4E0B0E401C01D92AB3DB207E1F70E943C
:10012000EE010C944F040C9400000E94D902089533
:10013000CF92DF92EF92FF9297E0C12CD12C760103
:1001400036C0292F092E000C330B482F50E0092E02
:1001500002C0559547950A94E2F740FF14C0220F5C
:10016000331F220F331F48E050E060E070E004C00E
:10017000440F551F661F771F2A95D2F7C42AD52A28
:10018000E62AF72A13C0220F331F220F331F4EE037
:1001900050E060E070E004C0440F551F661F771FF9
:1001A0002A95D2F7C42AD52AE62AF72A915099230C
:1001B00044F6C701B601FF90EF90DF90CF9008950D
:1001C0004F925F926F927F928F929F92AF92BF9267
:1001D000CF92DF92EF92FF920F931F93CF93DF9313
:1001E000CDB7DEB7A097CDBFDEBF492E552466241C
:1001F000772449825A826B827C825C01CC24DD2484
:10020000AD8EBE8ECF8ED8A2872E982EA92EBB245F
:10021000452E5524662477244D825E826F8278862F
:100220002A016624772449865A866B867C86432E6B
:10023000542E652E77244D865E866F86788A412EF1
:10024000552466247724498A5A8A6B8A7C8A280135
:10025000662477244D8A5E8A6F8A788E4F2C502EC2
:10026000612E7724498E5A8E6B8E7C8E59805092E7
:1002700044094D8C5E8C6F8C78A0E0914309EE238D
:10028000E4F74D8E5E8E6F8E78A240924409E09125
:100290004309EE23E4F780924409E0914309EE23F9
:1002A000E4F760934409809143098823E4F76D8063
:1002B00060924409809143098823E4F7798470921D
:1002C0004409809143098823E4F7AD84A09244094E
:1002D000809143098823E4F72093440980914309DE
:1002E0008823E4F7B988B0924409809143098823B0
:1002F000E4F7CD88C0924409809143098823E4F74C
:10030000D98CD0924409809143098823E4F7E09284
:100310004409809143098823E4F7A096CDBFDEBF4E
:10032000DF91CF911F910F91FF90EF90DF90CF90D1
:10033000BF90AF909F908F907F906F905F904F9005
:100340000895CF92DF92EF92FF920F931F93CF9376
:10035000DF937C0110E037C00E94DD03CFEFD0E0D7
:10036000BE010E946A03C82E0E94DD03BE010E94E6
:100370006A03D82E0E94DD03BE010E946A03082F83
:10038000C12FD0E0CE01880F991FC80FD91FCC0F05
:10039000DD1FCC0FDD1FCE0DDF1D8C2D0E949800C0
:1003A000688379838A839B838D2D0E9498006C8358
:1003B0007D838E839F83802F0E9498006887798732
:1003C0008A879B871F5F1E3138F2DF91CF911F9183
:1003D0000F91FF90EF90DF90CF9008950E949500CD
:1003E0000E9401030E940D038BE090E40E94A10192
:1003F000F12C39C00F2D10E0E801CC0FDD1FC00F2C
:10040000D11FCC0FDD1FCC0FDD1FC55FDF4B8881F7
:100410009981AA81BB810E949800000F111F000FD3
:10042000111FF801ED59FD4B608371838283938323
:100430008C819D81AE81BF810E949800F801ED58AA
:10044000FE4B608371838283938388859985AA8517
:10045000BB850E949800F801E551FE4B60837183D3
:1004600082839383F3948DE18F1520F6C0E01EC044
:100470008C2F90E0880F991F880F991FFC01ED5871
:10048000FE4BE080F18002811381FC01E551FE4BBF
:100490002081318142815381FC01ED59FD4B608106
:1004A0007181828193810E94E000CF5FCE3100F3A1
:1004B00087E592E00197F1F700C00000D7CF1092D6
:1004C000890080E0089544E268ED88E690E00E94AB
:1004D000FA0280E0089580E0089580E008C0E82FE7
:1004E000F0E0E05FFB4F9081986090838F5F8830F1
:1004F000B0F380E008C0E82FF0E0E05DFB4F9081B2
:10050000986090838F5F8830B0F380E008C0E82F58
:10051000F0E0E05BFB4F9081986090838F5F8830C4
:10052000B0F380E008C0E82FF0E0E059FB4F908185
:10053000986090838F5F8830B0F380E008C0E82F28
:10054000F0E0E057FB4F9081986090838F5F883098
:10055000B0F380E008C0E82FF0E0E055FB4F908159
:10056000986090838F5F8830B0F3089580B18F7D5D
:1005700080B9E5E1F4E08081877F808381B18F7E5F
:1005800081B980B1806180B9E4E1F4E08081877F46
:1005900080838081806880838081887F846080837D
:1005A00081B18F7B81B980B1806480B90E940103E1
:1005B00008950E946D0280B18B7F80B9E2E1F4E082
:1005C0008081877F808381B1877F81B980B1886096
:1005D00080B989B18F7B89B988B1806488B90E945C
:1005E00063020E94FF020E946B020E94B6020E94F8
:1005F0005F0208951BBEFC0164BF4083089580E044
:100600000895E0E4F9E083E7808381E08283E4E019
:10061000F0E41082158216820895E0E4F9E080810A
:100620008160808308951F920F920FB60F9211245C
:100630000BB60F922F933F934F935F936F937F93DC
:100640008F939F93AF93BF93EF93FF93E0E4F9E011
:10065000948180E8838380910840823029F0E09182
:100660000540F09106409083E4E0F0E4A181B2817E
:100670009D012F5F3F4F21833283813019F0119606
:100680009C9101C090E0E4E0F0E483818150838399
:10069000882319F0909344090AC0E4E0F0E483E071
:1006A00080830580F681E02D309709F00995FF9150
:1006B000EF91BF91AF919F918F917F916F915F91DA
:1006C0004F913F912F910F900BBE0F900FBE0F9047
:1006D0001F90189597FB072E16F4009407D077FD0E
:1006E00009D00E947E0307FC05D03EF490958195C9
:1006F0009F4F0895709561957F4F0895AA1BBB1B6E
:1007000051E107C0AA1FBB1FA617B70710F0A61B11
:10071000B70B881F991F5A95A9F780959095BC0132
:10072000CD0108958F929F92AF92BF92CF92DF92A8
:10073000EF92FF92CF93DF93EC01688179818A81F8
:100740009B81611571058105910521F464E279EDC4
:100750008BE597E02DE133EF41E050E00E94EC03A0
:1007600049015A019B01AC01A7EAB1E40E940B04C4
:100770006B017C01ACEEB4EFA50194010E94190459
:10078000DC01CB018C0D9D1DAE1DBF1DB7FF03C04D
:100790000197A109B04888839983AA83BB839F7777
:1007A000DF91CF91FF90EF90DF90CF90BF90AF900F
:1007B0009F908F9008950C94920380E090E40C94A5
:1007C0009203A0E0B0E08093004090930140A0939A
:1007D0000240B09303400895052E97FB1EF4009449
:1007E0000E94030457FD07D00E941E0407FC03D09B
:1007F0004EF40C94030450954095309521953F4F4D
:100800004F4F5F4F089590958095709561957F4FFC
:100810008F4F9F4F08950E944004A59F900DB49F55
:10082000900DA49F800D911D11240895B7FF0C9485
:100830000B040E940B04821B930B0895A1E21A2E55
:10084000AA1BBB1BFD010DC0AA1FBB1FEE1FFF1F74
:10085000A217B307E407F50720F0A21BB30BE40BC4
:10086000F50B661F771F881F991F1A9469F760950B
:100870007095809590959B01AC01BD01CF010895C5
:10088000A29FB001B39FC001A39F700D811D1124D1
:10089000911DB29F700D811D1124911D0895F89432
:0208A000FFCF88
:0408A2000100000051
:00000001FF
