S00F00004F6E65576972652E737265635C
S11300000C9474000C9493000C9493000C9493003F
S11300100C9493000C9493000C9493000C94930010
S11300200C9493000C9493000C9493000C94930000
S11300300C9493000C9493000C9493000C949300F0
S11300400C9493000C9493000C9457010C9493001B
S11300500C9493000C9493000C9493000C949300D0
S11300600C9493000C9493000C9493000C949300C0
S11300700C9493000C9493000C9493000C949300B0
S11300800C9493000C9493000C9493000C949300A0
S11300900C9493000C9493000C9493000C94930090
S11300A00C9493000C9493000C9493000C94930080
S11300B00C9493000C9493000C9493000C94930070
S11300C00C9493000C9493000C9493000C94930060
S11300D00C9493000C9493000C9493000C94930050
S11300E00C9493000C94930011241FBECFEFCDBF4A
S11300F0DFE7DEBF10E4A0E0B0E4EAE2F5E000E010
S11301000BBF02C007900D92A430B107D9F721E4C8
S1130110A4E0B0E401C01D92A337B207E1F70E9446
S1130120AD000C9493020C9400000E9423010895E6
S1130130FFCF0E9421026FEF70E00E94AE01092EF2
S1130140000CAA0BBB0B80930B4090930C40A09324
S11301500D40B0930E400E9498000E9495000E94AA
S113016045010E9451010E9499001092890080E08B
S1130170089544E268ED88E690E00E943E0180E044
S1130180089580E0089580E008C0E82FF0E0E05F83
S1130190FB4F9081986090838F5F8830B0F380E04C
S11301A008C0E82FF0E0E05DFB4F908198609083F9
S11301B08F5F8830B0F380E008C0E82FF0E0E05BA8
S11301C0FB4F9081986090838F5F8830B0F380E01C
S11301D008C0E82FF0E0E059FB4F908198609083CD
S11301E08F5F8830B0F380E008C0E82FF0E0E0577C
S11301F0FB4F9081986090838F5F8830B0F380E0EC
S113020008C0E82FF0E0E055FB4F908198609083A0
S11302108F5F8830B0F3089580B18F7D80B9E5E1B8
S1130220F4E08081877F808381B18F7E81B980B142
S1130230806180B981B18F7B81B980B1806480B9DC
S11302400E94450108950E94C30080B18B7F80B94C
S1130250E2E1F4E08081877F808381B1877F81B987
S113026080B1886080B90E94B9000E9443010E9455
S1130270C1000E940C010E94B50008951BBEFC0140
S113028064BF4083089580E00895E0E4F9E083E3E7
S1130290808381E08283E4E0F0E410821582168298
S11302A00895E0E4F9E080818160808308951F92DD
S11302B00F920FB60F9211240BB60F922F933F9308
S11302C04F935F936F937F938F939F93AF93BF935A
S11302D0EF93FF93E0E4F9E0948180E883838091D5
S11302E00840823029F0E0910540F0910640908367
S11302F0E4E0F0E4A181B2819D012F5F3F4F2183AF
S11303003283813019F011969C9101C090E0E4E0B1
S1130310F0E4838181508383882319F09093440906
S11303200AC0E4E0F0E483E080830580F681E02DF8
S1130330309709F00995FF91EF91BF91AF919F918B
S11303408F917F916F915F914F913F912F910F907A
S11303500BBE0F900FBE0F901F90189597FB072EA2
S113036016F4009407D077FD09D00E94C20107FC5F
S113037005D03EF4909581959F4F089570956195B1
S11303807F4F0895AA1BBB1B51E107C0AA1FBB1FC7
S1130390A617B70710F0A61BB70B881F991F5A950D
S11303A0A9F780959095BC01CD0108958F929F92F5
S11303B0AF92BF92CF92DF92EF92FF92CF93DF93EF
S11303C0EC01688179818A819B81611571058105C0
S11303D0910521F464E279ED8BE597E02DE133EFAB
S11303E041E050E00E94300249015A019B01AC01F6
S11303F0A7EAB1E40E944F026B017C01ACEEB4EFBA
S1130400A50194010E945D02DC01CB018C0D9D1DB0
S1130410AE1DBF1DB7FF03C00197A109B048888373
S11304209983AA83BB839F77DF91CF91FF90EF904D
S1130430DF90CF90BF90AF909F908F9008950C94D1
S1130440D60180E090E40C94D601A0E0B0E0809363
S1130450004090930140A0930240B093034008955C
S1130460052E97FB1EF400940E94470257FD07D007
S11304700E94620207FC03D04EF40C94470250958C
S11304804095309521953F4F4F4F5F4F089590957C
S11304908095709561957F4F8F4F9F4F08950E946F
S11304A08402A59F900DB49F900DA49F800D911D73
S11304B011240895B7FF0C944F020E944F02821B2F
S11304C0930B0895A1E21A2EAA1BBB1BFD010DC0BC
S11304D0AA1FBB1FEE1FFF1FA217B307E407F507F0
S11304E020F0A21BB30BE40BF50B661F771F881FCC
S11304F0991F1A9469F760957095809590959B0162
S1130500AC01BD01CF010895A29FB001B39FC0010A
S1130510A39F700D811D1124911DB29F700D811D2B
S10D05201124911D0895F894FFCFF3
S107052A01000000C8
S9030000FC
