S00F00004F6E65576972652E737265635C
S11300000C9474000C9493000C9493000C9493003F
S11300100C9493000C9493000C9493000C94930010
S11300200C9493000C9493000C9493000C94930000
S11300300C9493000C9493000C9493000C949300F0
S11300400C9493000C9493000C942A020C94930047
S11300500C9493000C9493000C9493000C949300D0
S11300600C9493000C9493000C9493000C949300C0
S11300700C9493000C9493000C9493000C949300B0
S11300800C9493000C9493000C9493000C949300A0
S11300900C9493000C9493000C9493000C94930090
S11300A00C9493000C9493000C9493000C94930080
S11300B00C9493000C9493000C9493000C94930070
S11300C00C9493000C9493000C9493000C94930060
S11300D00C9493000C9493000C9493000C94930050
S11300E00C9493000C94930011241FBECFEFCDBF4A
S11300F0DFE7DEBF10E4A0E0B0E4E2E2F5E000E018
S11301000BBF02C007900D92A430B107D9F720E4C9
S1130110A4E0B0E401C01D92A731B207E1F70E9448
S113012026010C948F020C9400000E94F3010895A0
S1130130CF92DF92EF92FF9297E0C12CD12C7601FF
S113014036C0292F092E000C330B482F50E0092EFE
S113015002C0559547950A94E2F740FF14C0220F58
S1130160331F220F331F48E050E060E070E004C00A
S1130170440F551F661F771F2A95D2F7C42AD52A24
S1130180E62AF72A13C0220F331F220F331F4EE033
S113019050E060E070E004C0440F551F661F771FF5
S11301A02A95D2F7C42AD52AE62AF72A9150992308
S11301B044F6C701B601FF90EF90DF90CF90089509
S11301C0CF92DF92EF92FF92CF936B017C018F2D40
S11301D09927AA27BB27809344090E948102C82F2C
S11301E00E948802CC2311F08111F7CFC701AA27FE
S11301F0BB27809344090E948102C82F0E94880271
S1130200CC2311F08111F7CFBB27AF2D9E2D8D2D5F
S1130210809344090E948102C82F0E948802CC2343
S113022011F08111F7CFC09244090E948102C82FB6
S11302300E948802CC2311F08111F7CF0E9488021A
S1130240CF91FF90EF90DF90CF9008950E9495009A
S11302500E941B020E942402C0E0D0E488810E9414
S113026098006093134070931440809315409093CA
S1130270164089810E94980060930F40709310404B
S113028080931140909312408A810E949800609359
S11302900B4070930C4080930D4090930E40C0E04F
S11302A01FC060911340709114408091154090914B
S11302B016400E94E00060910F40709110408091C0
S11302C01140909112400E94E00060910B407091A7
S11302D00C4080910D4090910E400E94E000CF5F51
S11302E0CF31F8F28BE291E00197F1F700C0000002
S11302F0D6CF1092890080E0089544E268ED88E644
S113030090E00E94140280E0089580E0089580E067
S113031008C0E82FF0E0E05FFB4F90819860908385
S11303208F5F8830B0F380E008C0E82FF0E0E05D34
S1130330FB4F9081986090838F5F8830B0F380E0AA
S113034008C0E82FF0E0E05BFB4F90819860908359
S11303508F5F8830B0F380E008C0E82FF0E0E05908
S1130360FB4F9081986090838F5F8830B0F380E07A
S113037008C0E82FF0E0E057FB4F9081986090832D
S11303808F5F8830B0F380E008C0E82FF0E0E055DC
S1130390FB4F9081986090838F5F8830B0F308950D
S11303A080B18F7D80B9E5E1F4E08081877F80832F
S11303B081B18F7E81B980B1806180B9E4E1F4E0DC
S11303C08081877F80838081806880838081887F2B
S11303D08460808381B18F7B81B980B1806480B96E
S11303E00E941B0208950E94870180B18B7F80B90F
S11303F0E2E1F4E08081877F808381B1877F81B9E6
S113040080B1886080B989B18F7B89B988B18064F3
S113041088B90E947D010E9419020E9485010E94F0
S1130420D0010E94790108951BBEFC0164BF408382
S1130430089580E0089583E780934009E4E0F0E4C0
S11304401082158216820895E0E4F9E080818160CB
S1130450808308951F920F920FB60F9211240BB64A
S11304600F922F933F934F935F936F937F938F9349
S11304709F93AF93BF93EF93FF93E0E4F9E09481EC
S113048080E8838380910840823029F0E091054020
S1130490F09106409083E4E0F0E4A181B2819D01F3
S11304A02F5F3F4F21833283813019F011969C9145
S11304B001C090E0E4E0F0E48381815083838823E9
S11304C019F0909344090AC0E4E0F0E483E08083E7
S11304D00580F681E02D309709F00995FF91EF91A1
S11304E0BF91AF919F918F917F916F915F914F9148
S11304F03F912F910F900BBE0F900FBE0F901F9046
S113050018959091044081E0923009F080E00895BC
S11305109091044081E0933009F080E00895F894CC
S1050520FFCF07
S10705220000FF00D2
S9030000FC
